:020000040800F2
:100000008011002009090008D1050008F508000842
:10001000F5080008F5080008F508000800000000D1
:10002000000000000000000000000000F5090008CA
:10003000F508000800000000910900085D1C000898
:10004000790B0008790B0008790B0008790B000880
:10005000790B0008790B0008790B0008790B000870
:10006000790B0008790B0008790B0008790B000860
:10007000790B0008790B0008790B0008790B000850
:10008000790B0008790B0008790B0008790B000840
:10009000790B0008790B0008790B0008790B000830
:1000A000790B0008790B0008790B0008790B000820
:1000B000790B0008790B0008790B0008790B000810
:1000C000790B0008790B0008790B0008790B000800
:1000D000790B0008790B0008790B0008790B0008F0
:1000E000790B0008790B0008790B0008790B0008E0
:1000F000790B0008790B0008790B0008790B0008D0
:10010000790B0008790B0008790B0008790B0008BF
:10011000790B0008790B0008790B0008790B0008AF
:10012000790B0008790B0008790B0008790B00089F
:10013000790B0008790B0008790B0008790B00088F
:10014000790B0008790B0008790B0008790B00087F
:10015000790B0008790B0008790B0008790B00086F
:10016000790B0008790B0008790B0008790B00085F
:10017000790B0008790B0008790B0008790B00084F
:10018000790B0008790B0008790B0008790B00083F
:10019000790B0008790B0008790B0008790B00082F
:1001A000790B0008790B0008790B0008790B00081F
:1001B000790B0008790B0008790B0008790B00080F
:1001C000790B0008790B0008790B0008790B0008FF
:0801D000790B0008790B00080F
:1001D80053B94AB9002908BF00281CBF4FF0FF31A6
:1001E8004FF0FF3000F00CB8ADF1080C6DE904CE0B
:1001F80000F008F8DDF804E0DDE9022304B07047F8
:10020800704700BF2DE9F04786468C460846089E91
:10021800154674461946002B40F0C2808542B2FA52
:1002280082F245D94AB1C2F1200300FA02FC2EFA43
:1002380003F3954043EA0C0C94404FEA154EA8B2DC
:10024800BCFBFEF8230C0EFB18CC08FB00F943EAB4
:100258000C43994528D9EB1808F1FF3704D2994582
:1002680002D9A8F102072B44A3EB0903A4B2B3FBFC
:10027800FEFC0EFB1C330CFB00F044EA0344A042D6
:1002880014D92C190CF1FF3304D2A04202D9ACF1D5
:1002980002032C44241A43EA07401EB1D440002329
:1002A80034607360BDE8F0874746DDE76346F1E7F1
:1002B80092BB431B01214FEA154EAFB2B3FBFEFCC4
:1002C800200C0EFB1C330CFB07F840EA034398454F
:1002D80062D9EB180CF1FF3004D2984502D9ACF181
:1002E80002002B44A3EB0803A4B2B3FBFEFC0EFBF5
:1002F8001C330CFB07F744EA0344A7424ED92C19D8
:100308000CF1FF3304D2A74202D9ACF102032C440A
:10031800E41B43EA0040C0E7C2F1200320FA03F1DE
:10032800954090402EFA03F303434FEA154EAFB2BF
:10033800B1FBFEFC0EFB1C10190C0CFB07F841EA84
:100348000041884504FA02F422D969180CF1FF30FB
:1003580004D2884502D9ACF102002944A1EB080176
:100368009BB2B1FBFEFC0EFB1C110CFB07F743EA2A
:1003780001439F420ED9EB180CF1FF3104D29F4282
:1003880002D9ACF102012B44DB1B41EA004192E7A0
:100398006046E3E76146F7E76046A3E76346B7E7E9
:1003A800834206D916B9002108467BE7C6E900E072
:1003B800F9E7B3FA83F78FB9834201D3724508D8B6
:1003C800BEEB020460EB030301209C461EB900212A
:1003D80068E73846FAE7C6E9004CF8E7C7F1200CA9
:1003E800BB4022FA0CF41C432EFA0CF120FA0CF351
:1003F800B84001434FEA14490EFA07F5B3FBF9F880
:100408001FFA84FE09FB18300B0C08FB0EFA43EAAE
:1004180000439A4502FA07F240D9E31808F1FF3081
:1004280004D29A4502D9A8F102002344A3EB0A0397
:1004380089B2B3FBF9F809FB183308FB0EFE41EA51
:1004480003418E452CD9611808F1FF3304D28E453B
:1004580002D9A8F10203214443EA0040A0FB029814
:10046800A1EB0E014145CE46434602D306D14D4588
:1004780004D2B9EB020E68EB04030138002EA6D0B3
:10048800B5EB0E0261EB030101FA0CFC22FA07F34B
:100498004CEA0303F940C6E9003198E74046C5E74E
:1004A8004346D9E710B5002003F0BFFB044610B15E
:1004B80000239B68FFDE024802F0DEFE204610BDE6
:1004C80030460008014B1B68184700BF0000002099
:1004D800014B1860704700BF0000002030B585B0A0
:1004E80004460D4610220021684603F0A0FC0223B2
:1004F8008DF802302A46044B01932146684602F0E3
:10050800F3FB05B030BD00BFCD04000880B505463B
:100518000E461746984602F011FA034603F0F2FC1D
:10052800DFF81890044649F800304246304639460C
:10053800A84754F8090000F0F9F900BF08000000C6
:10054800034A536823F0020353600020704700BF3A
:10055800002004E0134B1A6842F400721A601A680B
:1005680042F480621A601A6842F480721A600E4B74
:100578000E4A1A600E4A536843F0010353600D4B4C
:100588009A6D42F080529A659B6D0B4A82B003F0D7
:1005980080530193019B936843F48043936002B0B6
:1005A800704700BF00200240380000200024F400FB
:1005B800002004E00010024000700040014B03607E
:1005C80000207047E443000808B5034B1B689847B0
:1005D800BDE8084000F026B80400002030BFFFF74F
:1005E800FDBF00BF2DE9F0410B4EDFF8308006EB70
:1005F8000807CC1B054632460949204603F009FC8A
:10060800A01942460021083C03F011FC2C6707F1B1
:100618000800BDE8F08100BF0000000004000000F1
:10062800DC430008074A936893F90E10002907DB9A
:10063800526993421FBF044A536843F08053536082
:10064800704700BF6803002000ED00E070B5264B3E
:1006580015469A6A12F0100F9A6A14BF11241024D2
:1006680012F0080F9A6A18BF1224920706460AD594
:10067800586B9A6A140634D519B19A6A22F0800226
:100688009A62132401E06FF01500174B9A6A12F072
:10069800010F9A6A18BF142412F0200F9A6A18BF23
:1006A8001524D20602D49B6A9B070AD50E4B5B68B9
:1006B800190506D5314600F011FA10B180F3098802
:1006C8000224094B9A6A920642BF5A6A22F40052DF
:1006D8005A629A6A42F0FF029A6200232B702046FF
:1006E80070BD6FF01500CCE700ED00E0134B9A6A7F
:1006F80012F0007F9A6A14BF1E201D2012F0807F1E
:100708009A6A18BF1F2012F4002F9A6A18BF212076
:1007180012F4802F9A6A18BF222012F4003F9A6AB6
:1007280018BF232012F4803F9A6A6FEA02426FEAE8
:1007380012429A6218BF2420704700BF00ED00E003
:1007480010B5194B0246986A9C6A10F4805F14BF72
:100758001720162014F4006F9C6A18BF1820A405EF
:1007680009D5986B986A000404D51AB19A6A22F4DC
:1007780000429A6219200C4B9A6A12F4806F9A6AA6
:1007880018BF1A20D2050CD49B6A13F4005F18BF57
:100798001C20054A936A43F47F43936200230B703D
:1007A80010BD1B20F5E700BF00ED00E0F0B5484B99
:1007B8005B688BB00446C3F30803002585F31188F2
:1007C800BFF36F8F02F07F40B0F17F4F11D102F07D
:1007D8000C0008280DD010074CBF0C46012500223C
:1007E800033B8DF80720032B05D8DFE803F02463CB
:1007F80067602C46F3E700239DF80720CAB902AECC
:1008080004F1200720686168324603C20834BC42FC
:100818001646F7D1099A002D54D0C2F3080121B920
:100828006FEA52226FEA4222099202A9184602F0A0
:1008380031FD0BB0F0BD264BDA6A9107DBD4DA6ADA
:10084800002AD8DBDA6A5200D5D55A69A16942F480
:1008580080725A61BFF34F8FBFF36F8F5A6931F8B7
:10086800021C22F480725A61BFF34F8FBFF36F8F5F
:100878004DF6027291420AD09A6AD2B24AB10DF18B
:10088800070201212046FFF7E1FE0346B4E723688B
:10089800B2E79A6A12F47F4F05D00DF107010120E3
:1008A800FFF74EFFF1E79B6AB3F5803FA3D3FFF74D
:1008B8001DFFEAE70DF107020021E3E70DF107014B
:1008C8000020EDE722F4FF7222F00102ACE700BF3E
:1008D80000ED00E0044B5A6942F010025A615A696F
:1008E80022F008025A61704700ED00E0EFF308803B
:1008F800EFF3098101B57246FFF758FF01BD00BF4C
:10090800102080F3118808484FF40461401880F3E0
:100918000988EFF314800221084380F31488BFF399
:100928006F8F00F09BF80000C0030020084B9B6805
:1009380083420BD1EFF3058343B1064B5A6842F06B
:1009480080525A605A6A22F400425A6203F02ABA64
:100958006803002000ED00E0094A93686FF00A017F
:100968009967084958674B6843F080534B600023E8
:1009780083F31188BFF36F8F9368986F704700BF38
:100988006803002000ED00E015498A684FF0300048
:100998001044EFF3098C80E8F01F102080F31288D0
:1009A800BFF36F8F0F4F4FF000664A698A603E6051
:1009B8004FF07004141920680B4C2060506F00230E
:1009C800536780F3118804B5104600F0EFF8BDE8CE
:1009D800044002F1300090E8F01F8CF3098870475A
:1009E8006803002004ED00E0200200201EF0040F40
:1009F8000CBFEFF30880EFF30980816911F8021C3E
:100A08000229FFD001B5724602F04AFC01BD00BFC1
:100A180040B2002807DB044A4109012300F01F0007
:100A2800834042F82130704700E100E040B20028DE
:100A3800A8BF00F1604001F10101B8BF064B4FEAC1
:100A48000111ACBF00F5614000F00F00C9B2B4BF9E
:100A5800195480F80013704714ED00E00F4A08B5E8
:100A68000F4B22F07F029A60BFF34F8FBFF36F8F57
:100A7800D3F8882022F47002C3F88820EFF3148397
:100A880023F0040383F31488BFF36F8F01F042FB54
:100A980001F0E0FF00F060F801F080FB00000008C2
:100AA80000ED00E042F8203C009B42F81C3C0A495B
:100AB800019B42F8183C029B42F8143C21F00101CA
:100AC8004FF0807342F8043C42F8081C0023203A97
:100AD80002654367704700BF15050008094A0346C9
:100AE800906870B113F1160F006E05D0A0F14002A6
:100AF8009A4205D8834203D2814228BF002070471A
:100B0800002070476803002008B515460B4A0C4BB7
:100B18009060026F1A600E4600F048F82C4686F383
:100B280009884FF00000074B984720464FF0000116
:100B38004FF000024FF00003034C204768030020E9
:100B480020020020B932000815050008014B1022C8
:100B58001A61704700ED00E0044800231021C21814
:100B68000133662B82F80013F9D1704700E100E0E9
:100B780008B5EFF30583064A103B02EBC30152F8B0
:100B8800330049688847BDE80840FFF74BBD00BF00
:100B9800AC400008024B034A0348012100F076B834
:100BA8000080002000000020E4430008026E054B8E
:100BB800403A1A60044A4021C3E90112184601214B
:100BC80000F06EB82402002000000B15084AC2F895
:100BD80098000B6823F01F03034343F01003C2F887
:100BE8009C308B6843F00103C2F8A030704700BF07
:100BF80000ED00E02DE9F043DFF8608085B00E4697
:100C08001F4604464FF00009B14523DA6068D8B1A1
:100C18003FB1411E08421BD11F2819D92368194228
:100C280016D12368019302F057FBA368034303938B
:100C3800D8F89050C5F30725D0B2013DA84207D88F
:100C480001A9FFF7C3FF421C09F101090C34DBE7D6
:100C58006FF01502104605B0BDE8F08300ED00E026
:100C6800044B0522C3F89420BFF34F8FBFF36F8F57
:100C7800704700BF00ED00E0BFF35F8F024B00221A
:100C8800C3F89420704700BF00ED00E010B5034C96
:100C980001232278FFF7AEFF207010BD98030020D3
:100CA80008B50B4A00231278FFF7A4FF10F1160FBE
:100CB80007D0084A0021D2F89030C3F3072398429E
:100CC80000DB08BDC2F89800C2F8A0100130F2E7B6
:100CD8009803002000ED00E02DE9F043534B544CFD
:100CE800D3F890302568C3F307239D4285B000F2FE
:100CF8009A80FFF7C1FF00200C2685421AD14D4C7F
:100D08004D4F25706846FFF759FCDFF82081DFF862
:100D18002C9106460025AE4213D123784349002082
:100D2800D1F89020C2F30722934276DBFFF798FFB1
:100D3800002042E0616806FB0011FFF747FF013021
:100D4800DBE7009800EB05114FEA051CCB683B4038
:100D5800B3F5000F48D00AD8B3F5001F30D0B3F56B
:100D6800800F36D0B3F5801F10D00135D3E7B3F12B
:100D7800807F42D0B3F1007FF7D150F80C308868FB
:100D88004A6802F0A9FA40F4802009E050F80C30D3
:100D980088684A6802F0A0FA40F0885040F4302091
:100DA800CDE901230390D8F890302078C3F30723C6
:100DB800013B98422AD96FF0150005B0BDE8F083D1
:100DC80050F80C3088684A6802F086FA40EA090050
:100DD800E6E750F80C3088684A6802F07DFA40F07F
:100DE800E06040F40030DBE750F80C3088684A686F
:100DF80002F072FA40F08270D2E750F80C3088683E
:100E08004A6802F069FA40F08870C9E701A9FFF75B
:100E1800DDFE237801332370A7E7C1F89830C1F8C5
:100E2800A00001337CE74FF0FF30C6E700ED00E09B
:100E3800F0430008980300200000F0FF00000811AC
:100E480008B5024B1B689847002008BD30020020F7
:100E5800034B044A1860937843F002039370704779
:100E6800300200200800002008B50649064821F095
:100E78000701C1F1005202F5004202F0BEF900205C
:100E880008BD00BFC7110020340200202DE9F04141
:100E98000F4E104F054600244FF001082A78131909
:100EA800DBB208FA03F0736930EA030309D152FA96
:100EB80084F3706157F833201AB107EBC3035968FC
:100EC80090476A780134E3B29A42E7D2BDE8F081EC
:100ED8000004014040020020044B18440023013361
:100EE800994200F8012BFADC704700BF440000204B
:100EF80007B5062201210020FFF7EEFF0022114668
:100F08000620FFF793FD012108460722FFF7E4FFBB
:100F1800002211460720FFF789FD0822012102203F
:100F2800FFF7DAFF002211460820FFF77FFD0922AC
:100F380001210320FFF7D0FF002211460920FFF707
:100F480075FD0A2201210420FFF7C6FF0022114681
:100F58000A20FFF76BFD052108461722FFF7BCFFA3
:100F6800002211461720FFF761FD282206210A20DA
:100F7800FFF7B2FF002211462820FFF757FD074A66
:100F880092E803006B4683E8030005488268194627
:100F98001268904703B05DF804FB00BFDC4300080B
:100FA800A83F0008034660B1B0FA80F2C2F11F0200
:100FB800D2B205498856054A11680B431360FFF7FA
:100FC80027BDFF22F5E700BF4400002000040140D0
:100FD800024A136823EA00031360704700040140C3
:100FE800032921D8DFE801F0020C10190F4B9A6889
:100FF80022EA00029A60DA6822EA0002DA607047A0
:101008000A4B9A680243F5E7084BDA680243DA604C
:101018009A6822EA00029A607047044B9A68024371
:101028009A60DA681043D860704700BF0004014036
:1010380030B5B0B1B0FA80F3C3F11F03DBB20B488F
:1010480050F833408C4204D100EBC3056D689542DB
:1010580005D044B940F8331000EBC30042600020CB
:1010680030BDFF23EBE76FF00F00F9E740020020E7
:1010780060B1B0FA80F3C3F11F03DBB2044A002168
:1010880042F8331002EBC30251607047FF23F5E7C3
:101098004002002000F00302043292000F23934024
:1010A80043EA900000F003030233074A52F8232072
:1010B800030C93FAA3F3B3FA83F302EA104003F0A4
:1010C8001F03D840704700BF0000014010B5234BF4
:1010D80018680B68082B144616D00B2B0BD89BB13D
:1010E800013B0A2B10D8DFE803F018162F323634EC
:1010F800320F1B262600582B0FD008D84C2B0CD0AB
:10110800502B0AD0482B08D06FF0850007E05C2BE5
:1011180003D0602BF7E74FF400402060002010BD9B
:1011280000F0E2F80623B0FBF3F0552358430723F9
:10113800B0FBF3F0F1E700F0D7F80623B0FBF3F0CB
:10114800552358434008E8E74FF4FA40E5E7002004
:10115800E3E70348E1E70348DFE700BF3800002082
:1011680000366E01006CDC02F8B55A4F5A4C00F09C
:10117800D9F8384602F063F900F036FEA368574AFA
:10118800C3F303131578D35C05F01F0503F01F03A1
:1011980020FA03F647FA05F5AE4202D2284600F0D7
:1011A800BBFE236823F480232360236843F4803341
:1011B800236023689803FCD5D4F8943043F00103E6
:1011C800C4F89430D4F894309907FBD5444B1A6886
:1011D80042F480721A601A68D205FCD5D4F89030AF
:1011E80043F00103C4F89030D4F890309B07FBD546
:1011F8003B4A136823F480731360D4F8983043F0A3
:101208000103C4F89830D4F898309807FBD5A36840
:1012180003F00C030C2B18D12368590506D4236856
:1012280043F48073236023685A05FCD5A36823F030
:10123800030343F00103A360A36803F00C03042B2A
:10124800FAD1A36823F0F003A360236823F0807326
:101258002360E36823F0605323F4003343F06053C2
:10126800E360E36843F48033E360E36823F4C00396
:10127800E360E36843F48013E36000F039F823681F
:1012880043F08073236023689B01FCD5A36823F097
:10129800F00343F08003A360A36843F00303A36053
:1012A800A36803F00C030C2BFAD1A368AE4223F019
:1012B800F003A36002D3284600F02EFE094B1F60FE
:1012C800A36823F4E063A360A36823F46053A360D6
:1012D8000020F8BD80FE210A001002402D470008BA
:1012E80000700040380000200048704700366E014A
:1012F8000A4AD2F8803023F48073C2F8803002F5AD
:10130800D032074BD1680B4043F4AA4343F0530350
:10131800D360D36843F08073D36070470070004097
:101328000C80FFF9064B9A6D42F080529A659B6DCE
:1013380082B003F080530193019B02B0704700BF55
:101348000010024008B5074802F06FFC38B10648A3
:10135800FFF77EFD0448FFF7BBF8002008BD6FF0DB
:101368001200FBE784400008751300080A2838B506
:10137800074D044604D1AB680D215B6828469847A1
:10138800AB6803485B68E1B29847204638BD00BFA8
:10139800844000082DE9F843D0F80480D0F8109074
:1013A800D8F8080017460D461E4601F0AAFFB7F503
:1013B800001F044616D12846D8F80840FFF76AFEF1
:1013C80084420CD1294601F09CFF0446FFF700FE39
:1013D8002046FFF74DFE00212046FFF701FE0020C2
:1013E800BDE8F883B7F5800F20D0B6F1806F19D02B
:1013F800B6F1C06F18D0B6F1007F1AD10226104995
:101408004A462046FFF714FEB0B9D8F80810284617
:1014180001F07AFF20463146FFF7E2FD2046FFF74C
:10142800C1FDDCE70126EAE70326E8E76FF085005F
:10143800D6E76FF01500D3E76FF00F00D0E700BFD5
:101448000137000838B5036904465860084D284636
:1014580002F0EBFB40B16168AB680C311B682846B1
:10146800984700EAE07038BD6FF01200FBE700BF54
:10147800A83F00082DE9F0471E4F044600EBC106BF
:101488000025B44201D1002014E02068C30600F012
:101498001F0911D4656845F02005C0F3481AC0F348
:1014A80044200F2823D857F82080B8F1000F0DD119
:1014B8006FF01200BDE8F087B9F1100F04D0B9F150
:1014C800110FEAD16568E8E73025E6E7404602F003
:1014D800ACFB0028ECD04B462A460AF00F014046E8
:1014E80002F020F9002804F10804CADAE2E76FF0F4
:1014F8001500DFE7DC4400080B4B5B6823F07F43F3
:1015080023F0C00318041A0D00F47C1040EA0210FE
:10151800C3F303421043DA0202F0E062104303F41B
:10152800F8531843704700BF00280040064B1A685C
:10153800064B134003F47C1002F07F02104303F4BF
:10154800FE431843704700BF002800407F7F3F00DC
:101558002DE9F8430446D0F80480D0F810903B4DAC
:10156800284602F062FB00286CD0AF68D8F8081053
:101578003B6828469847064620B16FF00405284680
:10158800BDE8F883484602F096FB314A136843F4F5
:1015980080731360D8F80810BB690831002BECD0B1
:1015A80028463246984705460028E6D1294AD2F807
:1015B800903043F40043C2F890306668264CA16925
:1015C80022692369CA20606249064FF053006062AD
:1015D80009D47168C2F30E028A4204D13268C3F397
:1015E800064393421AD01C4802F04DFA38BBA3694F
:1015F80023F04003A3612369726823F4FF4323F0B7
:101608007F03134323612369326823F4FE0343EA0B
:1016180002432361104B6FF08002DA600E4B9A6927
:1016280022F408029A619A6942F020029A61FF2224
:101638005A62074A136823F4807313609FE76FF0B8
:101648000405E7E76FF0120599E700BFA83F000817
:101658000070004000100240002800402DE9F043CF
:101668004D69D0F8108005F26C73B3F5FA6F85B048
:101678000E466AD38B69013367D0002200234046A7
:1016880000F0FAFD074600285BD1DFF8C490314826
:10169800D9F8003043F48073C9F80030337A0A244B
:1016A800B3FBF4F204FB123343EA02138DF80C3057
:1016B8003379B3FBF4F204FB123343EA02138DF8D7
:1016C8000D303378B3FBF4F205F29C7504FB12334A
:1016D80043EA0213012102AAEDB28DF80E3002F09E
:1016E8003BFAB5FBF4F304FB135545EA03153369DC
:1016F80018488DF807500133DBB2B3FBF4F204FB52
:10170800123343EA02138DF80530337BB3FBF4F24E
:1017180004FB123343EA02138DF80630B369002B39
:1017280008BF072301AA01218DF8043000F092FBBD
:10173800D9F8003023F48073C9F80030404600F02F
:1017480013FE384605B0BDE8F0836FF01507F8E7DB
:1017580000700040002800402DE9F84F0E46D0F8F0
:1017680010A0D0F8049000297CD000220023504615
:1017780000F082FD804650B9DFF8F0B0DBF80C309D
:10178800DB0607D4504600F0EFFD6FF03C084046FA
:10179800BDE8F88FFFF7B0FE0546FFF7C7FEDBF898
:1017A80008700146FFF7C2FE88420446F5D1FFF7EC
:1017B800A3FEA842EED1504600F0D6FDC5F30313B0
:1017C80003EB830205F00F0303EB4203DBB2643340
:1017D8007361C5F3033303EB8302C5F3032303EB00
:1017E8004203DBB2013B3361C5F3035303EB8302CE
:1017F800C5F3034303EB4203DBB2F360C4F30353C3
:1018080003EB8302C4F3034303EB4203DBB2B3608D
:10181800C4F3033303EB8302C4F3032303EB420350
:10182800DBB27360C4F303132D0E03EB830304F0E0
:101838000F04072D04EB430408BF0025E4B2B5618B
:101848003460D9F804200A48BFB2D71B00230132FC
:10185800A7FB0001FEF7BCFC4FF0FF33C6E90733D6
:10186800706294E76FF0150891E700BF0028004008
:1018780000CA9A3B012912D0022907D089B9006809
:10188800094BC01A18BF0120000370470068064BB7
:10189800984214BF4FF440504FF400507047002056
:1018A80070474FF4005070470080004070B51D46E7
:1018B800094B002633F812203346FEF789FC09024B
:1018C80041EA10616C08000220182A46334641F1AB
:1018D8000001FEF77DFC70BD18460008F7B50269E7
:1018E800436810681D680C46D9688368DB68B3B123
:1018F80001AA9847002812DB214B9D4232D1019F53
:10190800204E00252346AAB238460021FFF7CEFF15
:10191800A0F54070B04204D901350C2DF2D103B0C6
:10192800F0BD174EF36A23F00F032B43F362002C2C
:10193800F5D0154B33F81520002319463846FEF725
:1019480047FC090241EA106163080002C0182246F8
:101958004FF0000341F10001FEF73AFCC0F3130019
:10196800F060DCE72B6823F400432B60019B002C1C
:10197800D5D003EB5403B3FBF4F39BB2EB60CEE793
:1019880000800040FFFC0F00184600082DE9F843CE
:1019980006460A794068336904685F68012A0D467B
:1019A80054D0931ED3F1000848EB03084FEA882867
:1019B8006979FFF75FFF95F80690B9F1020F0346C2
:1019C80047D0B9F1040F48D0002A50D0033A012A71
:1019D80045D94FF48050B3F5805F4AD0B3F5405FE6
:1019E80049D0002B0CBF01230323994237D141462C
:1019F80001F0F8FE814532D1EB79A3B1012B3CD13E
:101A08001F4B9C420FD0A3F574439C420BD003F5A7
:101A180080639C4207D003F580639C4203D003F5A2
:101A280050539C421BD1236823F0010323602946AD
:101A3800304601F08DFF236843F00103236095E8E9
:101A4800030087E803000020BDE8F8834FF4C0686E
:101A5800AEE73AB94FF08050BDE7002AB9D06FF031
:101A68008500F1E7033A012AF9D90020B3E71046C7
:101A7800B1E70023B9E70223B7E7032BC0D0EEE7AD
:101A880000380140F7B50569446806464E482860A5
:101A980002F0CBF8002800F090802868E16883689D
:101AA8001B6898470028C0F28A80206A01AA002192
:101AB80001F04DFE0028C0F28280019B00221979B6
:101AC8001868FFF7D7FC002879DB756833692C683C
:101AD8005F68236823F001032360686802F0A5F8B3
:101AE80000286AD0D5E901018368DB6803B198470B
:101AF80054E8003F43F00C0344E80032002AF7D1D1
:101B08003946304601F024FF2B7D1BB1A36843F012
:101B18000803A3606B7D1BB1636843F400436360F3
:101B2800AB7D1BB1636843F480336360EB7D1BB10D
:101B3800636843F4003363602B7E63B3234B9C429A
:101B48000FD0A3F574439C420BD003F580639C42ED
:101B580007D003F580639C4203D003F550539C42A1
:101B68002FD173681A68936843F48043936023689D
:101B78006A7E23F0787343EA425323602368AA7E7F
:101B880023F4F81343EA02432360EB7E1BB1A368F6
:101B980043F40043A3602B7F1BB1236843F0005339
:101BA8002360236843F001032360E3699A02FCD5AC
:101BB800E3695B02FCD5002001E06FF0120003B07E
:101BC800F0BD6FF01500FAE7A83F000800380140A3
:101BD80010B54FF0E0230F499C691A6908689B69A2
:101BE8000D4902F4803234B993B903464AB90A68F8
:101BF8001044C01A10BD002B08BF03460AB9A342FF
:101C0800F5D90A6802440A604FF0E0221269EEE74B
:101C18000446F3E764030020600300200A4B102207
:101C280083F82320094B44F268221A60084B0020ED
:101C380018604FF0E02344F267225A6198611A69EC
:101C480042F007021A61704700ED00E064030020CB
:101C580060030020684620F007018D4619B5FFF79C
:101C6800B7FF114B1149D3E900420868001942F146
:101C78000002C3E900020E4A00230B60D2E90041CA
:101C880044F26823001BB0FBF3F043431B1941F1F6
:101C98000001C2E9003100F0B9FFFEF7C3FCBDE85E
:101CA80019408546704700BF780000206003002077
:101CB800700000202DE9F041DFF8DC8099B1421C6A
:101CC8000BD14FF0E022136923F0010313614FF0A9
:101CD8007F43C8F80030BDE8F081D8F800600128DB
:101CE80007DC00270BE0431CD8F80060F7D140F26E
:101CF800D93040F2DA339842A8BF1846471EEFF3AE
:101D08001185102383F31288BFF36F8FFFF760FFED
:101D1800224C4FF0E0239969D4E90023801843F15D
:101D28000003C4E900031E4B00221A601D4B1A6809
:101D3800831A2ED444F2682C0CFB073303F5844332
:101D48006733B3FBFCF7131A0CFB073340F2264248
:101D5800934238BF1346144A934228BF13464FF0A4
:101D6800E022C8F80030013B906953610023936179
:101D78008142A1EB0003D4E9001238BF9B195B181C
:101D880042F10002C4E9003285F31188BFF36F8F76
:101D9800A1E740F22643E2E7640300207800002030
:101DA80060030020700000202882FF0038B5EFF3A0
:101DB8001185102383F31288BFF36F8F084B1C68BB
:101DC800084B1B68E41AFFF703FF85F31188BFF37C
:101DD8006F8F44F268232044B0FBF3F038BD00BF96
:101DE8007800002070000020174B9A6802F00C025F
:101DF800042A23D09A6802F00C02082A20D09A6894
:101E080002F00C020C2A1DD1D968DA68D868DB68A0
:101E180001F00301C3F341630329C2F30312C0F3C2
:101E2800062003F101030CBF084909495B00013290
:101E3800B1FBF2F25043B0FBF3F07047044870472F
:101E480002487047002070470010024000366E01BB
:101E58000024F400F8B504461546A9B9537813F0E0
:101E6800100F4FF0CA020AD153236262636201F075
:101E78000AFE012829D10120FF236362F8BD23F05F
:101E880010030A336B70EFE7CA234362532343629C
:101E980001F0F9FD0128EED061681E4AAB780A40CE
:101EA80013432A7843EA4233EA7843EA02436A78DA
:101EB80043EA022363606FF08003E360A3699B0633
:101EC80026D4204601F006FED6E7AB786A78E97892
:101ED80067680A20B3FBF0F600FB163343EA0613E3
:101EE8002E780C4D3D4045EA4635DBB22B43B1FB1D
:101EF800F0F500FB151141EA0511C9B243EA0143A7
:101F0800B2FBF0F100FB112242EA0112D2B2CFE794
:101F18000020B1E7C00000FF294A1368D2F88020EA
:101F280012F4807F03F4C063264A00F1FF3124D104
:101F3800914242D8B3F5007F2FD1234B984234D831
:101F4800224B984233D8224B984234D8214B98429E
:101F580094BF00200120204A136823F00F03034395
:101F68001360136803F00F0398421CBF136803F053
:101F78000F03C01A18BF0120704791421DD8B3F54E
:101F8800007F0AD1154B98420FD8154B98420ED8AE
:101F9800144B98420FD8144BD9E7B3F5806F08D18A
:101FA800124B984207D8124BD1E70420D3E70320FD
:101FB800D1E70020CFE70220CDE70120704700BF1E
:101FC800007000407FFE210A00321B08806514065D
:101FD80000990D0480CC060200200240000E27075D
:101FE800804A5D050087930380C3C90100366E01EE
:101FF800001BB70038B5EFF31185102383F312885F
:10200800BFF36F8F064B9C6801F022FE85F31188A1
:10201800BFF36F8F2046BDE83840FEF787BC00BF8E
:102028006803002038B5094B53F82040013053F8B5
:102038002050A54200D838BD636823B1204601F07E
:102048000AFE0834F5E723689847FAE700460008CF
:1020580070B52B4B2B4C2C4D012286B003201A70E7
:10206800FFF7E0FF00F03AFE01F011FE0420FFF751
:10207800D9FF2646AE4204F1300410D300F00EFC1E
:10208800204C224EAC4226D300F01CFCFEF70AFA84
:102098001F4A137B23F00103137306B070BD54F875
:1020A8000C3C059354F8103C049354F8143C0393E7
:1020B80054F8183C029354F81C3C019354F8203C03
:1020C800009354E90A2354E90C0100F09DF954F8EF
:1020D800303C5E65CDE7D4E90A23B3F1FF3F08BF82
:1020E800B2F1FF3F05D052EA0301206803D101F0A5
:1020F800E9FD3034C6E73146183000F00DFDF8E749
:1021080099030020DC430008DC430008A53D0008D3
:102118000001002008B50348034A0021121A01F003
:10212800B2FD08BD700000209C03002070B500239C
:1021380086B00122CDE90423134E144D01930F22DA
:10214800CDE902321249142303FB005506EBC016F1
:1021580004464FF4C07000FB04110E4B00954FF479
:10216800A072304600F050F9737B0B4AEE6023F002
:10217800040373734FF4046304FB033313442C7494
:102188006B6006B070BD00BF8000002068030020AF
:10219800000C0020993C0008C0030020BFB50020B7
:1021A800FFF740FF2C4B83F308882C4D2C4E6B69AE
:1021B8002C4F43F400736B610024F02385F8223020
:1021C800EC772C766C76AC7685F820406B6A43F415
:1021D800E0236B62FEF77EFBFEF7B8FC4FF0FF339F
:1021E800AB62EB62FEF778FDFEF7D4FC1E4BB360E2
:1021F80040F201129A81C3E91844DC6601F014FD2B
:10220800FEF7A8F90120FFF70DFF0220174DFFF791
:1022180009FF00F08BFB164B7561059301231549E7
:102228000094CDE903434FF480623B46CDE9014475
:10223800284600F0E9F86A7B064622F004022846A0
:102248006A7301F07BFD2046FFF770FF3A4631467E
:102258002846FEF759FC00BF000C002000ED00E006
:102268006803002059200008800100200001002098
:102278003D470008800D00202DE9F341044617462C
:102288001E46EFF31188102383F31288BFF36F8F74
:10229800C368334A7BB180689168884219D057EA8D
:1022A800060318D188F31188BFF36F8F6FF00F0002
:1022B80002B0BDE8F081916891F90E1021610133F7
:1022C800E3609368A36088F31188BFF36F8F0020E1
:1022D800EEE72169F2E791F90E1090F90E30994274
:1022E800A8BF19466FF07E029142B8BF11468B42D3
:1022F8002DDD01F0D8FC0546CDE9007619482246C7
:10230800414600F00DFA0028E1D0EFF311861023C2
:1023180083F31288BFF36F8FA068D0B12368216957
:102328009C420AD04BB193F90E309942A8BF194686
:102338006FF07E039942B8BF194601F0B4FC40B172
:102348000848314600F066FA6FF00A00B0E7002549
:10235800D2E7002DF4D186F31188BFF36F8FF3E72E
:10236800680300209A030020F8B583680546002B0F
:102378003FD0234A926893423ED1C368012B03D9C8
:10238800013BC3600020F8BDEFF31187102383F3EE
:102398001288BFF36F8F0169806801F084FC2C6894
:1023A800A54207D10023C5E9023387F31188BFF39B
:1023B8006F8FE7E7002CF5D0D4E9003213605A603C
:1023C800637B002623F002036373C4E90066A660FA
:1023D80004F1180001F008FDAC6094F90E302B618F
:1023E8002046A66701F0AAFC0648394600F012FA12
:1023F800C8E76FF01500C6E74FF0FF30C3E700BF2E
:10240800680300209A0300202DE9F043073285B0C5
:1024180022F007020E461F461099017300F1580377
:102428007F32C0E916330446002322F03F0204211C
:10243800836041733F2A0F98A073C4E90633E3739E
:1024480006F14009A2F1400805D883F31188BFF3CB
:102458006F8F084602DFB51829462046FEF7C2F8F6
:1024680007300E9B20F00700A066C4E91898029375
:102478000D9B01932D1A0C9B00932A463B4631462F
:102488002046FEF70FFB00236365044B9B6803B1EE
:10249800DB6EE366284605B0BDE8F08368030020DC
:1024A80038B590F90D20437B002A014604DA03F081
:1024B8007F03437301F008FC0D4D2A46AB6852F8C0
:1024C800184F944200D004B9EC688B4207D05A7B6D
:1024D800D20604D1DA897F2A01D9A2692AB1A34296
:1024E80002D0204600F05EFA23466B6138BD00BF7B
:1024F8006803002070B590F90D30427B002B36DB65
:10250800D10634D18369002B31D11C4C62F07F0293
:102518004273224652F8181F914218BF0B46E169D0
:1025280023B9C0E900210860E0610CE090F90E5081
:1025380093F90E60B5421BD0AE4219DD5968C0E967
:10254800003108605860A569954200D005B9E56872
:10255800A3685A7BD20604D1DA897F2A01D9AA69ED
:1025680052B1AB4202D0284600F01CFA656170BD3A
:102578009942D6D01B68D3E76361F8E76803002067
:102588002DE9F843002A427B0CBF4FF010094FF0A9
:10259800080919EA020F04460F4621D149EA020345
:1025A800D2092AD14373B9F1080F2CD04FF0000893
:1025B800344E334653F8185F9D4200D005B9F5688C
:1025C800B368AB4202D0284600F0ECF9B9F1100F1D
:1025D800756144D1BFF35F8F637B23F0600363733E
:1025E800284B9B68A34247D1EFF30583002B43D1C7
:1025F8003846BDE8F843FEF7AFB903F07F034373ED
:1026080001F062FBCFE7A36813B1204601F064FB39
:1026180004F1180001F0E8FBA56D04F15806AE427C
:1026280011D04FF0000875B1284601F055FB05F1AF
:10263800180001F0D9FBC5F878802846FFF75AFF43
:10264800A56DAE42EFD10F4B9B689C42AED1EFF324
:102658000588B8F1000818BF4FF00108A8E7B8F1DD
:10266800000FB7D0084BB36040F201129A810022E4
:10267800C3E91822DA66ADE787F31188BFF36F8FD5
:10268800BDE8F883680300208001002070B590F948
:102698000D20437B002A014604DA03F07F034373CD
:1026A80001F012FB4B7B1D4C63F07F0322464B73FA
:1026B80052F8183FE069934208BF002323B9C1E9E3
:1026C80000200160E1610CE091F90E5093F90E6071
:1026D800B5421ED0AE421CDD5868C1E90030016029
:1026E8005960A569A368954200D005B9E5688B4291
:1026F80007D05A7BD20604D1DA897F2A01D9AA6980
:102708002AB1AB4202D0284600F04CF92B4663614F
:1027180070BD9842D3D01B68D0E700BF6803002083
:10272800F8B5124B0C461146114A98681060DDE95D
:102738000676EFF31182102282F31288BFF36F8FAF
:102748009D68284601F0D2FAB6F1FF3F08BFB7F1FD
:10275800FF3F06D007493A46334605F1180000F016
:10276800DBF92046BDE8F840FEF7F6B8680300201C
:1027780088030020A53D0008F8B50446EFF311874B
:10278800102383F31288BFF36F8F437BDA0649B2B5
:1027980019D18569BDB903F07F03437301F094FA39
:1027A800437B1B4E817363F07F034373334653F8B7
:1027B800182F9A4218BF1546F2695DB9C4E900326C
:1027C8001460F46111E0A173002087F31188BFF34E
:1027D8006F8FF8BD95F90E00814214D0884212DD42
:1027E8006A68C4E9005214606C60B4699C4200D005
:1027F80004B9F468B3689C4202D0204600F0D2F8CD
:1028080074610120E1E7AA42D8D02D68D5E700BF5E
:102818006803002049B9EFF3058030B9054B5A69C0
:102828009B689A4201D0FEF797B881F31188BFF3ED
:102838006F8F70476803002010B5EFF311841022E2
:1028480082F31288BFF36F8F427B510704D484F35D
:102858001188BFF36F8F10BD22F004024273FFF797
:1028680049FE21460248BDE81040FFF7D3BF00BF2C
:102878009A030020034648B9EFF3058232B9064AA5
:1028880051699268914201D0FEF766B883F31188C6
:10289800BFF36F8F704700BF68030020EFF311810B
:1028A800102383F31288BFF36F8F054B9A68D37B8D
:1028B800013BD37381F31188BFF36F8F704700BF5B
:1028C8006803002070B5EFF31186102383F3128894
:1028D800BFF36F8F144DAB68DA7B0132DA732A4687
:1028E80052F8184F944200D004B9EC685A7BD206CB
:1028F80004D1DA897F2A01D9A2692AB1A34202D078
:10290800204600F04FF823466B6186F31188BFF329
:102918006F8FEFF31180102383F31288BFF36F8F4B
:10292800BDE87040FFF7A6BF68030020024B03F123
:102938001802C3E90622704768030020014B986813
:10294800704700BF68030020044BC01A044BC01036
:102958005843044B01221A54704700BF000200205C
:10296800ABAAAAAA9A030020C3897F2B12D80A4BC4
:102978001B6863B1094B90F90E201B689A4209DB6A
:10298800437BDB0606D1064BC31A18BF012303F0AD
:10299800010070470023FAE7900300208C03002011
:1029A8008000002070B50E4B0E4C1E7C06EB4603D3
:1029B80004EBC3040546204601F016FA0A4B002230
:1029C80028469A55FFF7D0FF48B1084B08491A68BE
:1029D800013A2046D317BDE8704000F09DB870BD9D
:1029E80068030020000200209A03002090030020C2
:1029F8005129000838B5EFF31185102383F31288A5
:102A0800BFF36F8F104B114A9C681068A04206D123
:102A1800FFF7C8FF85F31188BFF36F8F38BD00211A
:102A28001B7C11600A4AD35C002BF3D02046FFF7C9
:102A38009BFF0028EED0637BDB0602D12046FFF720
:102A480025FE2046E4E700BF680300208803002035
:102A58009A0300200748084A084908B5121A01F0E5
:102A680014F90748074A0849BDE80840121A01F056
:102A78000CB900BF000000206E0000207C47000851
:102A880000000020000000207C470008034B1B6862
:102A98000BB9FFF78BB90020704700BF94030020E3
:102AA80030B570B10B4B5B6898420AD0036843B1EC
:102AB800D3E90421D0E90445121941EB0501C3E922
:102AC8000421D0E9003213605A600023C0E90033C2
:102AD80030BD00BF3C00002010B50E4B1C689C4266
:102AE80004D1FFF7D3FF6FF0004010BDFFF7CEFF12
:102AF800002CF8D0D4E904321B1A62EBE072B3F16F
:102B0800004F72F10001EEDA002AACBF184600202F
:102B1800EBE700BF3C000020B3F1FF3F08BFB2F174
:102B2800FF3FF8B504461D4616465ED08160EFF3B8
:102B38001187102383F31288BFF36F8F013275F169
:102B4800FF3324DA2E49D1E900206FF001039B1AE4
:102B58004FF0FF3262EB00009E1B60EB0500012E78
:102B680070F1000301DA01260020C4E90460254E53
:102B7800D6F800C07568B44508BF4FF0000CBCF12A
:102B8800000F0DD1C4E900652C6074601CE0FFF7EC
:102B98007DFF013645F10005361845EBE070E4E7A6
:102BA800DCE90420D4E90431934271EB000E1DDA0C
:102BB800D21ADCF8043060EB0100CCE90420C4E947
:102BC80000C31C60CCF804403368B34209D09C426F
:102BD80007D10D4B1C6824B9FFF77EFF2146FFF78C
:102BE80069F887F31188BFF36F8FF8BD9B1A61EB03
:102BF8000001AC45C4E90431C4D0DCF800C0BEE72C
:102C0800180200203C000020940300202DE9F84F12
:102C1800EFF3118C102383F31288BFF36F8FDFF863
:102C2800B0A0DFF8B0902C4FC9F80000DAF8000027
:102C38000024504508BF00200025D7E90021D9F815
:102C48000030E04678B3D0E9046C4FEAE37EB34243
:102C58007EEB0C0B05DAF61A6CEB0E04C0E9046483
:102C680021E0B21841EBE671C0E90445C7E900214B
:102C7800FFF716FF88F31188BFF36F8F83689847B3
:102C8800EFF31188102383F31288BFF36F8FD9F8FD
:102C98000030DAF800009B1B5045C446C9F80030E4
:102CA800CBD1D7E900219A1841EBE3730024C7E997
:102CB8000023C9F80040FFF70FFF2146FEF7FAFF8F
:102CC80088F31188BFF36F8FBDE8F84FFFF792BE06
:102CD8003C0000209403002018020020014800F066
:102CE800CBBA00BF424700082DE9F04F8DB04368CA
:102CF8000293837815469A07804640F10D81002497
:102D08000E78002E00F00A81252E0BD04B1C039361
:102D18000134029B4146304698470028C0F2F680AD
:102D28000399EDE74E788B1C252E0393F0D00027EE
:102D3800B946BB46BBF11F0F38D8A6F12003102BAC
:102D48000AD8DFE803F02A09093009090921090925
:102D58000928092D09091F00A6F13003092B33D9C9
:102D68002A2E37D11BF0400F55F8043B40F08280E3
:102D7800002BA7BF4BF0200B9946C3F100094BF07D
:102D8800280B01E04BF0010B039B13F8016B039335
:102D9800002ECFD130E04BF0020B4BF0040BF3E7E1
:102DA8004BF0080BF0E74BF0100BEDE7BBF17F0F92
:102DB80019D8A6F13003092BD2D81BF0400F03D045
:102DC8000A2101FB0737DFE70A2101FB09394BF02C
:102DD800200BD9E72E2E06D11BF0400F40F09E8025
:102DE8004BF0400BD0E76C2E31D02BD8682E36D064
:102DF8006A2E3CD04C2E3AD0002F46F02003B8BFA4
:102E08002BF04002A3F16501BCBF1FFA82FB00272B
:102E1800022901D9612B2FD1073525F00705DFF8E5
:102E2800ACA2083507271BF0080F66D00AEB070B82
:102E380056465E4563D1A4EB0A0A06EB0A02A9EBE3
:102E480007096FE1742E9FD07A2E9DD0D4E71BF02E
:102E5800800F18BF4BF4007B4BF0800B94E71BF4FA
:102E6800807F18BF4BF4007B4BF4807B8CE74BF4DE
:102E7800207B89E71F4687E7A6F16301122900F244
:102E8800F080DFE811F013004F00EE00EE00EE00D6
:102E9800EE004F00EE00EE00EE00EE00EE00FE0049
:102EA800E900EE00EE001B00EE00AF0055F8043B11
:102EB8008DF8183001270DF1180AB4E755F804AB5E
:102EC800834BBAF1000F08BF9A461BF0400F14BF9E
:102ED80039464FF0FF31504600F0B1FF0746A2E7F0
:102EE800029B41462020984700280FDB013EB7424D
:102EF800F6D34C44A41BB14698E74E46F7E716F8BC
:102F0800010B029B41469847002892DA98F8023054
:102F180043F0040388F802304FF0FF3420460DB028
:102F2800BDE8F08F1BF0800F34D01BF4007F2CD04D
:102F3800073525F00705AA4669685AF8080B2BF0EB
:102F480010050029ADB237DA404261EB410145F482
:102F580080650DF1180B0A235A4600F07CFFA0EBA0
:102F68000B0301936B0662D5019B25F001019F427B
:102F780089B240F3A180002E00F0998015F010026C
:102F880040F09C80BB460D4623E0AA465AF8040B45
:102F9800C117D4E7AA461BF4807F5AF8041B01D155
:102FA8000846F5E71BF4007F15BF48B208B241F3A5
:102FB800C01141F3C031C2E750EA0103C9D11BF087
:102FC800400FC6D0002FC4D12BF0110295B2BB46DA
:102FD800019740F2064115EA01021CBF0BF1010BF3
:102FE80000222CE02BF010021FFA82FB0A231BF0B0
:102FF800800C49D01BF400711DBF073525F007056B
:10300800AA46AA461ABF5AF8080B69685AF8040B68
:1030180050EA010545D12BF016051BF0400FADB263
:1030280042D0002F40D12BF0170295B2019715F02E
:10303800100248D0019B002E42D103F1010B290751
:103048005AD4EB0706D5D9456FDD0199A9EB0B03D7
:103058005F18CB465B4649E04BF0100B10237826EF
:10306800C5E7782B04D1C6F1780343F01003BEE717
:10307800029B4146252098470028FFF647AF0234B7
:1030880047E608230026B2E7AA461BF480715AF8DF
:10309800040BBDD01BF400711ABFC0B2614680B2E8
:1030A800B6E72BF0060295B20DF1180B54E725F0A0
:1030B8001105ADB2BB468CE70D46B8E73B460D4659
:1030C80003F1020BBBE7DDF804B082E771470008A3
:1030D8006A470008CDE904324146029B2020984700
:1030E8000028FFF613AF049B059A01339945F1DCDC
:1030F800A4EB0B01CC189B460AB3029B4146302037
:1031080098470028FFF602AF8EB901342744019B87
:10311800391B994224DC1D465DBB019AA9EB0B09BA
:10312800224455461446914435E0019F92E7023403
:1031380041463046029B98470028E7DAE6E640F227
:1031480006410D42E2D015F0020F14BF2B202020BB
:1031580015F4806F04F10104414618BF2D20E9E7FA
:10316800029B414630209847002804F10104CEDA3A
:10317800CCE606AB013D4146585D029B98470028C6
:10318800CADAC3E6029B414620209847002804F18A
:103198000104FFF6BBAEA9EB0403002BF2DCBFE58C
:1031A800704700EBC100408840087047F8B50346F7
:1031B800FFF7F7FFB0FA80F0C0F11F0003EB800CB7
:1031C800CA00DCF81060171D0C4606328DB256B9DD
:1031D800012101FA00F0D9680143D960CCF8104008
:1031E800DD539D52F8BDF1000431585AD85303EB12
:1031F800C0009E52C5805D52F4E7043A2DE9F041C3
:10320800CC1D114424F0070421F007010E1BF70818
:10321800B7FA87F2C2F12405AD004FF00008073570
:10322800C2F12002ED0804604146A760C4F80C8092
:10323800920004F1100000F0FAFD6B0043F0010366
:10324800638004EBC5027B1B5900A4F80080518001
:10325800A21924F83550A2F80280A35304EBC7033F
:1032680029465A8842F001025A802046BDE8F041BA
:10327800FFF79CBF002070470FB407B504A951F8A9
:10328800040B0191FDF72AF903B05DF804EB04B0D3
:1032980070477047012801D1EFF30583FEF7AABEF6
:1032A80001460068FFF7F6BF00210120FFF7F2BFD3
:1032B80061B662B680F31188BFF36F8F704772B63C
:1032C800002383F31188BFF36F8FBFF34F8F30BF95
:1032D80062B6BFF36F8F7047202809D9B0F1004F4D
:1032E80008D80138B0FA80F0C0F11F0040007047DC
:1032F800082070473E20704708B5FDF7A1FD002063
:1033080008BD01208840704700F003020432920093
:103318000F23934043EA900010B500F003039B008D
:1033280003F1804303F58033020C9C6892FAA2F201
:10333800B2FA82F202F01F0224EA104091400143DF
:10334800996010BD0B68A3F14802182A82B012D800
:1033580003F1804303F5043348681A6802431A608E
:103368000B6803F1804303F5043300201B680193C5
:10337800019B02B070476FF08500FAE70B68A3F174
:103388004802182A9FBF03F1804303F504334968B4
:103398001A689DBF8A4300201A606FF08500704745
:1033A8000B2809D840F66E73C34013F0010F14BF01
:1033B80000206FF0850070476FF08500704710B5EA
:1033C8000868FFF7EDFF002820DB4A68FF2A1CD0B9
:1033D800D3B203F1804303F50433C2F342341868CF
:1033E800C2F3042204FA02F220EA02021A604968CF
:1033F800CBB203F1804303F50433C1F302421868EA
:10340800C1F304218A4002431A60002010BD0868F5
:1034180008B5A0F14803182B0AD800F1804000F540
:1034280004304B680268934314BF0120022008BD92
:10343800FFF7B6FF002814BF01200220F7E7704706
:1034480043685B681B690B600020704743685B68D2
:10345800586942400A4042405A6100207047436818
:103468005B6800209961704743685B680020996237
:10347800704743685A6853694B405361002070474E
:1034880010B503699868F8B1884219D1DC680868F2
:103498009860A14200D1D860002008602AB19A68DB
:1034A8000A60DA68996002B9D960002010E08142A8
:1034B80006D108682060D8688142EDD1DC60EBE76E
:1034C800044600680028F2D1002AE8D16FF0150000
:1034D80010BDF0B544680120676888401E46C2F3F5
:1034E800801327EA00078B403B43636090FAA0F7FC
:1034F800B7FA87F7D4F808C04FF0030E7F000EFA2A
:1035080007F72CEA070C90FAA0F7B7FA87F7C2F387
:10351800C1137F00BB4043EA0C03A36090FAA0F3F9
:10352800B3FA83F3E7685B000EFA03F327EA0307AD
:1035380090FAA0F3B3FA83F302F030055B00C2F30C
:1035480041229A403A43202DE26016D107292BD810
:1035580090FAA0F3226A2BB3B3FA83F39B000F21EE
:1035680001FA03F322EA030290FAA0F3B3FA83F311
:103578009B0006FA03F31343236290FAA0F3B3FA0D
:1035880083F3226890FAA0F05B000321B0FA80F080
:103598002D0901FA03F3400022EA030385401D4385
:1035A8002560F0BD2B46D9E7030A616A93FAA3F2B6
:1035B80082B1B2FA82F292000F2793FAA3F3B3FA18
:1035C80083F307FA02F29B0021EA02029E401643A7
:1035D8006662D2E72A46EEE7F8B512F4003C0669BF
:1035E8000C46134627D091071ED55A0740F1818013
:1035F8005022DF0603F4403518D542F4007225B195
:10360800316921FA04F7FF0746D51F03416869D5D8
:1036180049680123A3408B61406800232146FFF7D6
:1036280058FF002D4CD114E01022E2E79906E6D5A8
:1036380042F48062E3E7D70302F4403520D5DA0686
:1036480012D5002D46D12B464FF400724068FFF783
:1036580040FF336923FA04F2D20731D50122A24090
:1036680023EA020333612BE013F0200704D04DBB9B
:103678002B464FF48062E9E7B5B92B462A46E5E7C1
:1036880015B92B463022E1E7316921FA04F212F02C
:10369800010F4FF030020ED10127A74039433161A5
:1036A800BCF1000FB1D106E0316921FA04F212F041
:1036B8000102F1D03A46406800232146FFF709FF8E
:1036C8000020F8BD316921FA04F212F0010F4FF41D
:1036D8008062E0E7316921FA04F212F0010F4FF439
:1036E8000072D8E75F0341BF01234968A3408B629A
:1036F80092E76FF08500E4E770B50B4689680546E8
:1037080011B15E680C6801B970BD8A682A4002D0A0
:103718004B68304698471CB1236821461C46F2E79F
:103728002346FAE7F8B51F46044640680E46154694
:10373800FFF7CFFE112F08D1012303FA06F66368BD
:103748005B682A054CBF9E619E620020F8BD30B5BB
:10375800036813600579046804EBC504A34202D327
:103768006FF0010030BD5C798C4201D00833F0E77E
:103778000020F7E74368C1F34B101B6801F01F01F5
:10378800C05801238B40034214BF01230023137048
:103798000020704710B54368C1F34B101A6801F058
:1037A8001F01845801238B4023438350002010BD00
:1037B80010B54368C1F34B14186801F01F01235872
:1037C80001228A4023EA02032350002010BD38B5A5
:1037D80004460D46FFF7DEFF29462046FFF7E8FFBF
:1037E800002038BDB0F5805F07D0B0F1805F09D107
:1037F800002914BF012002207047002914BF0320AC
:1038080004207047002914BF022003207047436832
:103818001B68D869DA69D107DA69C0F3C00048BF04
:1038280040F002009207DA6948BF40F004005107EF
:10383800DA6948BF40F02000D20542BF4FF48072D9
:1038480040F008001A62C10744BF08221A628207C2
:1038580044BF01221A62410744BF02221A6282064B
:1038680044BF04221A62704710B543681B681020D1
:10387800DA691206FCD5EFF3118280F31288BFF3E0
:103888006F8FDC69240604D482F31188BFF36F8F2D
:10389800EEE7996282F31188BFF36F8F10BD43681A
:1038A8001B68DA69100744BF08221A62DA699206AF
:1038B80043BF5B6A0B7000204FF0FF30704710B5B4
:1038C8000269526812680A6042681268126802F453
:1038D800C062B2F5806F04460B4633D0A2F5C060D3
:1038E800424242411A7162681268526802F44052B8
:1038F800B2F5805F28D0B2F5405F27D0002A0CBF10
:10390800012203225A71626812681068116800F077
:10391800102001F4C061FFF765FF987162681268B2
:10392800926802F44072A2F540714A424A41DA7143
:1039380061680968896811F4804F18BF0322DA7139
:10394800002010BD0222CDE70022DBE70222D9E7E2
:103958002DE9F0410A790369D0F804805E68012AEC
:1039680004460D4611D0901E47424741BF0269796F
:103978004046FDF77FFFAB79022B09D0042B31D0ED
:10398800131E18BF01231B0306E04FF4C067EEE7C0
:10399800B2FA82F35B091B07EA79D8F80010012A0A
:1039A80014BF4FF0000C4FF4407CAE421DD10A68A2
:1039B80022F0805222F4B0523A431A430A604B680C
:1039C80023F4405303434B6063681A68936823F4F5
:1039D800407343EA0C03936031682046BDE8F04128
:1039E800FDF77CBF4FF48053D6E7D1F800E00EF422
:1039F800C06E77451FBFD1F800E02EF4C06E4EEAC6
:103A080007070F6061680F68796801F440518842C0
:103A18001FBF796821F440510143796061680868E3
:103A2800016801F010218B421FBF016821F01021AD
:103A38000B430360636819688B6803F440739C4503
:103A48001FBF8B6823F4407343EA0C038B606368E1
:103A58001B689968490405D5032A09D09A6822F495
:103A6800804204E0032A03D19A6842F480429A60B3
:103A780029683368994204D02046FDF72FFF2B6848
:103A88003360BDE8F08113B54FF47A7301930246B1
:103A9800C06810F040001BD14FF0FF33D360D368EB
:103AA8004FF0E021C3F38013019C04B10BB102B0C5
:103AB80010BD0B69DB0342BF019B03F1FF33019388
:103AC800D368019C002CC3F3801308BF0120EBE7E7
:103AD8000020ECE713B54FF47A720192C26802F045
:103AE800800262F0A002C260C2680346C2F34012BC
:103AF80000204FF0E021019C74B901280AD04FF44E
:103B08007A720192DA684FF0E021C2F34012019C08
:103B180004B192B102B010BD002AEED00A69D403F4
:103B280042BF019A02F1FF320192DA68019C002C2F
:103B3800C2F3401208BF0120DDE70A69D20342BF81
:103B4800019A02F1FF320192DA68019C002CC2F35B
:103B5800401208BF0120DAE7F8B504468369154624
:103B680091B913F040034FF0CA014FF0530209D046
:103B780061626262FFF787FF01282DD10120FF23D0
:103B88006362F8BD2B60F3E713F040034FF0CA01FE
:103B98004FF0530208BF2B6041624262FFF773FF88
:103BA8000128EBD02968AB7922680B43297943EACD
:103BB8000143697922F07F1243EA012322F4FE428D
:103BC800134323606FF08003E360A3699B0629D445
:103BD8002046FFF77FFFD2E72668AB7929796A7913
:103BE8002D680A2026F07F16B3FBF0F726F4FE4670
:103BF80000FB17332E4343EA0713B1FBF0F500FB34
:103C08001511DBB241EA0511C9B2334343EA014356
:103C1800B2FBF0F100FB112242EA0112D2B243EAF0
:103C28000223CEE70020AAE7704740B1C36858785E
:103C380010F001001EBF1878B0FA80F040097047F4
:103C4800EFF31183102383F31288BFF36F8FFEE71E
:103C580008B5FFF7F5FF10B5D0E9003433B90020F7
:103C6800E268537843F00103537010BD204698472B
:103C78000028F4D00028B8BF4042E368FF28A8BF56
:103C8800FF201870ECE700F0D2B800F0C2B8704717
:103C980008B51024EFF3118384F31288BFF36F8FF4
:103CA800FFF70DFBF6E790F90E308B4201D0FEF7D7
:103CB80063BD0020704703460020C3E90200C3E942
:103CC80000337047FEF7B8BDD0E9003213605A6080
:103CD8000023C0E90033704708B5FFF7F5FF437BC1
:103CE80023F0020343730023836008BD38B50446FC
:103CF8000D46FEF7D5FB637B43F002036373E5B122
:103D0800A5602B689D4209D16B68C4E900531C600B
:103D18006C6012E06A689A42F6D01B68002BF3D0F8
:103D280094F90E2093F90E108A42F3D09142F1DDF6
:103D38005A68C4E9003214605C6038BD10B5EFF30E
:103D48001184102383F31288BFF36F8FFEF7D2FB21
:103D580084F31188BFF36F8F10BD38B50446EFF3B5
:103D68001185102383F31288BFF36F8F437B13F001
:103D7800280F0BD183680BB1FFF7AEFF637B51B9F6
:103D880003F0FB0363732046FEF7B4FB85F3118849
:103D9800BFF36F8F38BD03F0EB03F3E70121183849
:103DA800FFF7DBBFEFF31181102282F31288BFF314
:103DB8006F8F027BD2070CD581F31188BFF36F8F09
:103DC800002383F31188BFF36F8F0423184602DFA3
:103DD8007047437B1B0704D581F31188BFF36F8FAE
:103DE80070470122FEF7CCBB10B5EFF31184102207
:103DF80082F31288BFF36F8F03683BB1FEF750FE62
:103E0800002084F31188BFF36F8F10BD6FF0150089
:103E1800F7E70A44914200F1FF3300D1704710B52B
:103E280011F8014B03F8014F9142F9D110BD02443A
:103E38000346934200D1704703F8011BF9E710B518
:103E4800024601448A42134603D01C780132002CF2
:103E5800F8D1181A10BDF0B5C3F137070446FFB200
:103E680003F01F031046082BE6B233D0102B3ED0C8
:103E78006508A40844EA817445EAC1752D194FEA1A
:103E8800910242EB5102290941EA02716D1842EB95
:103E98001212290A41EA02616D1842EB1222290C1A
:103EA80041EA02416D1842EB1242AD1842F100029C
:103EB800EC0844EA4274D10804EB8402A6EB4205FC
:103EC800EDB2092D0CD90134A5F10A0541F1000123
:103ED800EDB212E0E40844EA417406F00705C908A7
:103EE800303554EA010200F8015BBCD1F0BD240969
:103EF80044EA017406F00F050909092D84BFED197C
:103F0800EDB2EDE70148006870470000200200208C
:083F1800F4C2FF7F010000006C
:103F200071110008A83F00084905000800000000C2
:103F300000000000BC3F00084D1400083440000899
:103F40004D1400085C400008F90E0008D03F00083E
:103F50004D140008484000084D1400082040000897
:103F60004D1400080C4000084D140008F83F0008EC
:103F70004D140008E43F000859150008704000087F
:103F80008D1A0008844000088D1A00089840000827
:103F90004D13000800000000251C00080000000070
:083FA000710E00080000000092
:103FA8008046000800000000104400085600002069
:103FB80000000000EF4600081C45000820450008E6
:103FC80066000020000000006246000800000000B3
:103FD8000000000054000020400200208D46000828
:103FE8002C440008B844000858000020C0020020F3
:103FF8009B46000840440008B84400085A000020C6
:10400800D4020020A946000854440008B844000817
:104018005C000020E8020020B74600086844000859
:10402800B84400085E000020FC020020C5460008D5
:104038007C440008B84400086000002010030020F9
:10404800D346000890440008B844000862000020E5
:1040580024030020E1460008A4440008B8440008EE
:10406800640000203803002000470008304500089D
:104078004C450008680000204C0300200D4700084C
:1040880054450008EC4500086A000020180000208C
:104098001D470008A0450008EC4500086C000020FA
:0440A80028000020CC
:1040AC0000000000B132000800000000B13200082E
:1040BC0000000000B132000800000000B13200081E
:1040CC0000000000B132000800000000B13200080E
:1040DC0060460008950E00085E460008950E000824
:1040EC005C460008950E00085A460008950E00081C
:1040FC0058460008950E000800000000B132000878
:10410C0000000000B132000800000000B1320008CD
:10411C0000000000B132000800000000B1320008BD
:10412C0000000000B132000800000000B1320008AD
:10413C0000000000B132000800000000B13200089D
:10414C0000000000B132000800000000B13200088D
:10415C0000000000B132000856460008950E000819
:10416C0000000000B132000800000000B13200086D
:10417C0000000000B132000800000000B13200085D
:10418C0000000000B132000800000000B13200084D
:10419C0000000000B132000800000000B13200083D
:1041AC0000000000B132000800000000B13200082D
:1041BC0000000000B132000800000000B13200081D
:1041CC0000000000B132000800000000B13200080D
:1041DC0000000000B132000800000000B1320008FD
:1041EC0054460008950E000800000000B13200088B
:1041FC0000000000B132000800000000B1320008DD
:10420C0000000000B132000800000000B1320008CC
:10421C0000000000B132000800000000B1320008BC
:10422C0000000000B132000800000000B1320008AC
:10423C0000000000B132000800000000B13200089C
:10424C0000000000B132000800000000B13200088C
:10425C0000000000B132000800000000B13200087C
:10426C0000000000B132000800000000B13200086C
:10427C0000000000B132000800000000B13200085C
:10428C0000000000B132000800000000B13200084C
:10429C0000000000B132000800000000B13200083C
:1042AC0000000000B132000800000000B13200082C
:1042BC0000000000B132000800000000B13200081C
:1042CC0000000000B132000800000000B13200080C
:1042DC0000000000B132000800000000B1320008FC
:1042EC0000000000B132000800000000B1320008EC
:1042FC0000000000B132000800000000B1320008DC
:10430C0000000000B132000800000000B1320008CB
:10431C0000000000B132000800000000B1320008BB
:10432C0000000000B132000800000000B1320008AB
:10433C0000000000B132000800000000B13200089B
:10434C0000000000B132000800000000B13200088B
:10435C0000000000B132000800000000B13200087B
:10436C0000000000B132000800000000B13200086B
:10437C0000000000B132000800000000B13200085B
:10438C0000000000B132000800000000B13200084B
:10439C0000000000B132000800000000B13200083B
:1043AC0000000000B132000800000000B13200082B
:1043BC0000000000B132000800000000B13200081B
:1043CC0000000000B132000800000000B13200080B
:1043DC006000000001000000000000200000000050
:1043EC0000000B0602000000F84300080000000863
:1043FC004546000820000207000000204D4600083A
:10440C001C000B114D330008853300080000000020
:10441C00D51000081734000800000000C73300084E
:10442C00FFFF000000180048060000004C000000D0
:10443C0040000000FFFF00000014004805000000D1
:10444C004C00000020000000FFFF0000001000489E
:10445C00040000004C00000010000000FFFF0000F2
:10446C00000C0048030000004C0000000800000095
:10447C00FFFF000000080048020000004C00000094
:10448C0004000000FFFF00000004004801000000D1
:10449C004C00000002000000FFFF0000000000487C
:1044AC00000000004C00000001000000E135000895
:1044BC00493400085534000867340008713400088A
:1044CC007B3400089D1300088934000800000000AC
:1044DC005C400008484000083440000820400008B8
:1044EC000C400008F83F0008E43F00080000000002
:1044FC0000000000000000000000000000000000B0
:10450C00000000000000000000000000000000009F
:10451C00001002407D3700089D370008B9370008AD
:10452C00D73700087F000000F90000003C45000868
:10453C005800000000040000030000009068020016
:10454C00651600086117000800800040BC3F000899
:10455C008007000078450008010000000000000002
:10456C000000000000000000804500085C00000016
:10457C00010000008845000801000000904500087B
:10458C00020000004C000000000200006C00000063
:10459C000000000000380140BC3F00080E0800007D
:1045AC00C4450008010000000000000000000000ED
:1045BC0000000000CC450008600000000040000036
:1045CC00D445000801000000DC4500080200000092
:1045DC008704000000020000A70400000000000097
:1045EC00A73800087138000817380008951900081A
:1045FC00C7380008203F0008203F0008983F0008FB
:10460C00A03F0008A83F0008A83F000801000200D6
:10461C000400060008000A000C00100020004000F6
:10462C0080000001446576696365206973206E6FB4
:10463C00742072656164790A00464C4153485F30BE
:10464C00005352414D5F30000A0605050401030179
:10465C00020101010001696E746572727570742D2E
:10466C00636F6E74726F6C6C6572403430303130C5
:10467C00343030007263634034303032313030309B
:10468C00006770696F403438303031383030006733
:10469C0070696F40343830303134303000677069B5
:1046AC006F403438303031303030006770696F40D3
:1046BC003438303030633030006770696F403438D4
:1046CC00303030383030006770696F4034383030FB
:1046DC0030343030006770696F40343830303030EF
:1046EC0030300072657365742D636F6E74726F6C0D
:1046FC006C65720072746340343030303238303054
:10470C000073657269616C40343030303830303051
:10471C000073657269616C4034303031333830303D
:10472C00000000000000000000010203040607085E
:10473C00096D61696E002A2A2A20426F6F74696EB6
:10474C0067205A6570687972204F53206275696CC6
:10475C00642076342E302E30202A2A2A0A00286E25
:10476C00756C6C29002A666C6F61742A000000005D
:10477C007D320008E5050008000000000133000848
:10478C0000000000000000000000000020000020DD
:10479C0000C20100000103000000000030000020F6
:1047AC0000C20100000103000024F4003C000020C2
:1047BC003C000020FFFFFFFFFFFFFFFFFFFFFFFF9D
:0447CC00FFFFFFFFED
:1047D00000000000000000000000000000000000D9
:0A47E00000000000000000000000CF
:0447EA0015E015E0E1
:0400000508000909DD
:00000001FF
